{
  "_format": "hh-sol-artifact-1",
  "contractName": "MyToken",
  "sourceName": "contracts/Token.sol",
  "abi": [
    {
      "inputs": [],
      "stateMutability": "nonpayable",
      "type": "constructor"
    },
    {
      "inputs": [
        {
          "internalType": "address",
          "name": "spender",
          "type": "address"
        },
        {
          "internalType": "uint256",
          "name": "allowance",
          "type": "uint256"
        },
        {
          "internalType": "uint256",
          "name": "needed",
          "type": "uint256"
        }
      ],
      "name": "ERC20InsufficientAllowance",
      "type": "error"
    },
    {
      "inputs": [
        {
          "internalType": "address",
          "name": "sender",
          "type": "address"
        },
        {
          "internalType": "uint256",
          "name": "balance",
          "type": "uint256"
        },
        {
          "internalType": "uint256",
          "name": "needed",
          "type": "uint256"
        }
      ],
      "name": "ERC20InsufficientBalance",
      "type": "error"
    },
    {
      "inputs": [
        {
          "internalType": "address",
          "name": "approver",
          "type": "address"
        }
      ],
      "name": "ERC20InvalidApprover",
      "type": "error"
    },
    {
      "inputs": [
        {
          "internalType": "address",
          "name": "receiver",
          "type": "address"
        }
      ],
      "name": "ERC20InvalidReceiver",
      "type": "error"
    },
    {
      "inputs": [
        {
          "internalType": "address",
          "name": "sender",
          "type": "address"
        }
      ],
      "name": "ERC20InvalidSender",
      "type": "error"
    },
    {
      "inputs": [
        {
          "internalType": "address",
          "name": "spender",
          "type": "address"
        }
      ],
      "name": "ERC20InvalidSpender",
      "type": "error"
    },
    {
      "inputs": [
        {
          "internalType": "address",
          "name": "owner",
          "type": "address"
        }
      ],
      "name": "OwnableInvalidOwner",
      "type": "error"
    },
    {
      "inputs": [
        {
          "internalType": "address",
          "name": "account",
          "type": "address"
        }
      ],
      "name": "OwnableUnauthorizedAccount",
      "type": "error"
    },
    {
      "anonymous": false,
      "inputs": [
        {
          "indexed": true,
          "internalType": "address",
          "name": "owner",
          "type": "address"
        },
        {
          "indexed": true,
          "internalType": "address",
          "name": "spender",
          "type": "address"
        },
        {
          "indexed": false,
          "internalType": "uint256",
          "name": "value",
          "type": "uint256"
        }
      ],
      "name": "Approval",
      "type": "event"
    },
    {
      "anonymous": false,
      "inputs": [
        {
          "indexed": true,
          "internalType": "uint256",
          "name": "modelId",
          "type": "uint256"
        },
        {
          "indexed": false,
          "internalType": "string",
          "name": "name",
          "type": "string"
        },
        {
          "indexed": true,
          "internalType": "address",
          "name": "creator",
          "type": "address"
        }
      ],
      "name": "ModelListed",
      "type": "event"
    },
    {
      "anonymous": false,
      "inputs": [
        {
          "indexed": true,
          "internalType": "uint256",
          "name": "modelId",
          "type": "uint256"
        },
        {
          "indexed": true,
          "internalType": "address",
          "name": "buyer",
          "type": "address"
        }
      ],
      "name": "ModelPurchased",
      "type": "event"
    },
    {
      "anonymous": false,
      "inputs": [
        {
          "indexed": true,
          "internalType": "uint256",
          "name": "modelId",
          "type": "uint256"
        },
        {
          "indexed": true,
          "internalType": "address",
          "name": "rater",
          "type": "address"
        },
        {
          "indexed": false,
          "internalType": "uint8",
          "name": "rating",
          "type": "uint8"
        }
      ],
      "name": "ModelRated",
      "type": "event"
    },
    {
      "anonymous": false,
      "inputs": [
        {
          "indexed": true,
          "internalType": "address",
          "name": "previousOwner",
          "type": "address"
        },
        {
          "indexed": true,
          "internalType": "address",
          "name": "newOwner",
          "type": "address"
        }
      ],
      "name": "OwnershipTransferred",
      "type": "event"
    },
    {
      "anonymous": false,
      "inputs": [
        {
          "indexed": true,
          "internalType": "address",
          "name": "sender",
          "type": "address"
        },
        {
          "indexed": true,
          "internalType": "address",
          "name": "receiver",
          "type": "address"
        },
        {
          "indexed": false,
          "internalType": "uint256",
          "name": "amount",
          "type": "uint256"
        },
        {
          "indexed": false,
          "internalType": "uint256",
          "name": "timestamp",
          "type": "uint256"
        }
      ],
      "name": "TransactionMade",
      "type": "event"
    },
    {
      "anonymous": false,
      "inputs": [
        {
          "indexed": true,
          "internalType": "address",
          "name": "from",
          "type": "address"
        },
        {
          "indexed": true,
          "internalType": "address",
          "name": "to",
          "type": "address"
        },
        {
          "indexed": false,
          "internalType": "uint256",
          "name": "value",
          "type": "uint256"
        }
      ],
      "name": "Transfer",
      "type": "event"
    },
    {
      "inputs": [],
      "name": "MAX_TRANSACTIONS",
      "outputs": [
        {
          "internalType": "uint256",
          "name": "",
          "type": "uint256"
        }
      ],
      "stateMutability": "view",
      "type": "function"
    },
    {
      "inputs": [
        {
          "internalType": "address",
          "name": "owner",
          "type": "address"
        },
        {
          "internalType": "address",
          "name": "spender",
          "type": "address"
        }
      ],
      "name": "allowance",
      "outputs": [
        {
          "internalType": "uint256",
          "name": "",
          "type": "uint256"
        }
      ],
      "stateMutability": "view",
      "type": "function"
    },
    {
      "inputs": [
        {
          "internalType": "address",
          "name": "spender",
          "type": "address"
        },
        {
          "internalType": "uint256",
          "name": "value",
          "type": "uint256"
        }
      ],
      "name": "approve",
      "outputs": [
        {
          "internalType": "bool",
          "name": "",
          "type": "bool"
        }
      ],
      "stateMutability": "nonpayable",
      "type": "function"
    },
    {
      "inputs": [
        {
          "internalType": "address",
          "name": "account",
          "type": "address"
        }
      ],
      "name": "balanceOf",
      "outputs": [
        {
          "internalType": "uint256",
          "name": "",
          "type": "uint256"
        }
      ],
      "stateMutability": "view",
      "type": "function"
    },
    {
      "inputs": [],
      "name": "decimals",
      "outputs": [
        {
          "internalType": "uint8",
          "name": "",
          "type": "uint8"
        }
      ],
      "stateMutability": "view",
      "type": "function"
    },
    {
      "inputs": [],
      "name": "getLatestTransactionReceiver",
      "outputs": [
        {
          "internalType": "address",
          "name": "",
          "type": "address"
        }
      ],
      "stateMutability": "view",
      "type": "function"
    },
    {
      "inputs": [],
      "name": "getLatestTransactionSender",
      "outputs": [
        {
          "internalType": "address",
          "name": "",
          "type": "address"
        }
      ],
      "stateMutability": "view",
      "type": "function"
    },
    {
      "inputs": [],
      "name": "getLatestTransactionTime",
      "outputs": [
        {
          "internalType": "uint256",
          "name": "",
          "type": "uint256"
        }
      ],
      "stateMutability": "view",
      "type": "function"
    },
    {
      "inputs": [
        {
          "internalType": "uint256",
          "name": "modelId",
          "type": "uint256"
        }
      ],
      "name": "getModelDetails",
      "outputs": [
        {
          "internalType": "string",
          "name": "name",
          "type": "string"
        },
        {
          "internalType": "string",
          "name": "description",
          "type": "string"
        },
        {
          "internalType": "uint256",
          "name": "price",
          "type": "uint256"
        },
        {
          "internalType": "address",
          "name": "creator",
          "type": "address"
        },
        {
          "internalType": "uint256",
          "name": "averageRating",
          "type": "uint256"
        },
        {
          "internalType": "uint256",
          "name": "numberOfRatings",
          "type": "uint256"
        }
      ],
      "stateMutability": "view",
      "type": "function"
    },
    {
      "inputs": [
        {
          "internalType": "address",
          "name": "",
          "type": "address"
        },
        {
          "internalType": "uint256",
          "name": "",
          "type": "uint256"
        }
      ],
      "name": "hasRated",
      "outputs": [
        {
          "internalType": "bool",
          "name": "",
          "type": "bool"
        }
      ],
      "stateMutability": "view",
      "type": "function"
    },
    {
      "inputs": [
        {
          "internalType": "string",
          "name": "name",
          "type": "string"
        },
        {
          "internalType": "string",
          "name": "description",
          "type": "string"
        },
        {
          "internalType": "uint256",
          "name": "price",
          "type": "uint256"
        }
      ],
      "name": "listModel",
      "outputs": [
        {
          "internalType": "uint256",
          "name": "",
          "type": "uint256"
        }
      ],
      "stateMutability": "nonpayable",
      "type": "function"
    },
    {
      "inputs": [
        {
          "internalType": "uint256",
          "name": "",
          "type": "uint256"
        }
      ],
      "name": "models",
      "outputs": [
        {
          "internalType": "string",
          "name": "name",
          "type": "string"
        },
        {
          "internalType": "string",
          "name": "description",
          "type": "string"
        },
        {
          "internalType": "uint256",
          "name": "price",
          "type": "uint256"
        },
        {
          "internalType": "address",
          "name": "creator",
          "type": "address"
        },
        {
          "internalType": "uint256",
          "name": "totalRatings",
          "type": "uint256"
        },
        {
          "internalType": "uint256",
          "name": "ratingSum",
          "type": "uint256"
        },
        {
          "internalType": "uint256",
          "name": "numberOfRatings",
          "type": "uint256"
        },
        {
          "internalType": "bool",
          "name": "exists",
          "type": "bool"
        }
      ],
      "stateMutability": "view",
      "type": "function"
    },
    {
      "inputs": [],
      "name": "name",
      "outputs": [
        {
          "internalType": "string",
          "name": "",
          "type": "string"
        }
      ],
      "stateMutability": "view",
      "type": "function"
    },
    {
      "inputs": [],
      "name": "owner",
      "outputs": [
        {
          "internalType": "address",
          "name": "",
          "type": "address"
        }
      ],
      "stateMutability": "view",
      "type": "function"
    },
    {
      "inputs": [
        {
          "internalType": "uint256",
          "name": "modelId",
          "type": "uint256"
        }
      ],
      "name": "purchaseModel",
      "outputs": [],
      "stateMutability": "nonpayable",
      "type": "function"
    },
    {
      "inputs": [
        {
          "internalType": "address",
          "name": "",
          "type": "address"
        },
        {
          "internalType": "uint256",
          "name": "",
          "type": "uint256"
        }
      ],
      "name": "purchases",
      "outputs": [
        {
          "internalType": "bool",
          "name": "",
          "type": "bool"
        }
      ],
      "stateMutability": "view",
      "type": "function"
    },
    {
      "inputs": [
        {
          "internalType": "uint256",
          "name": "modelId",
          "type": "uint256"
        },
        {
          "internalType": "uint8",
          "name": "rating",
          "type": "uint8"
        }
      ],
      "name": "rateModel",
      "outputs": [],
      "stateMutability": "nonpayable",
      "type": "function"
    },
    {
      "inputs": [],
      "name": "renounceOwnership",
      "outputs": [],
      "stateMutability": "nonpayable",
      "type": "function"
    },
    {
      "inputs": [],
      "name": "symbol",
      "outputs": [
        {
          "internalType": "string",
          "name": "",
          "type": "string"
        }
      ],
      "stateMutability": "view",
      "type": "function"
    },
    {
      "inputs": [],
      "name": "totalSupply",
      "outputs": [
        {
          "internalType": "uint256",
          "name": "",
          "type": "uint256"
        }
      ],
      "stateMutability": "view",
      "type": "function"
    },
    {
      "inputs": [
        {
          "internalType": "address",
          "name": "to",
          "type": "address"
        },
        {
          "internalType": "uint256",
          "name": "amount",
          "type": "uint256"
        }
      ],
      "name": "transfer",
      "outputs": [
        {
          "internalType": "bool",
          "name": "",
          "type": "bool"
        }
      ],
      "stateMutability": "nonpayable",
      "type": "function"
    },
    {
      "inputs": [
        {
          "internalType": "address",
          "name": "from",
          "type": "address"
        },
        {
          "internalType": "address",
          "name": "to",
          "type": "address"
        },
        {
          "internalType": "uint256",
          "name": "amount",
          "type": "uint256"
        }
      ],
      "name": "transferFrom",
      "outputs": [
        {
          "internalType": "bool",
          "name": "",
          "type": "bool"
        }
      ],
      "stateMutability": "nonpayable",
      "type": "function"
    },
    {
      "inputs": [
        {
          "internalType": "address",
          "name": "newOwner",
          "type": "address"
        }
      ],
      "name": "transferOwnership",
      "outputs": [],
      "stateMutability": "nonpayable",
      "type": "function"
    },
    {
      "inputs": [],
      "name": "withdrawFunds",
      "outputs": [],
      "stateMutability": "nonpayable",
      "type": "function"
    }
  ],
  "bytecode": "0x60806040526001600a553480156200001657600080fd5b50336040518060400160405280600981526020017f414954552d3233313700000000000000000000000000000000000000000000008152506040518060400160405280600381526020017f415354000000000000000000000000000000000000000000000000000000000081525081600390816200009591906200074f565b508060049081620000a791906200074f565b505050600073ffffffffffffffffffffffffffffffffffffffff168173ffffffffffffffffffffffffffffffffffffffff16036200011f5760006040517f1e4fbdf70000000000000000000000000000000000000000000000000000000081526004016200011691906200087b565b60405180910390fd5b62000130816200015260201b60201c565b506200014c33686c6b935b8bbd4000006200021860201b60201c565b6200096d565b6000600560009054906101000a900473ffffffffffffffffffffffffffffffffffffffff16905081600560006101000a81548173ffffffffffffffffffffffffffffffffffffffff021916908373ffffffffffffffffffffffffffffffffffffffff1602179055508173ffffffffffffffffffffffffffffffffffffffff168173ffffffffffffffffffffffffffffffffffffffff167f8be0079c531659141344cd1fd0a4f28419497f9722a3daafe3b4186f6b6457e060405160405180910390a35050565b600073ffffffffffffffffffffffffffffffffffffffff168273ffffffffffffffffffffffffffffffffffffffff16036200028d5760006040517fec442f050000000000000000000000000000000000000000000000000000000081526004016200028491906200087b565b60405180910390fd5b620002a160008383620002a560201b60201c565b5050565b600073ffffffffffffffffffffffffffffffffffffffff168373ffffffffffffffffffffffffffffffffffffffff1603620002fb578060026000828254620002ee9190620008c7565b92505081905550620003d1565b60008060008573ffffffffffffffffffffffffffffffffffffffff1673ffffffffffffffffffffffffffffffffffffffff168152602001908152602001600020549050818110156200038a578381836040517fe450d38c000000000000000000000000000000000000000000000000000000008152600401620003819392919062000913565b60405180910390fd5b8181036000808673ffffffffffffffffffffffffffffffffffffffff1673ffffffffffffffffffffffffffffffffffffffff16815260200190815260200160002081905550505b600073ffffffffffffffffffffffffffffffffffffffff168273ffffffffffffffffffffffffffffffffffffffff16036200041c578060026000828254039250508190555062000469565b806000808473ffffffffffffffffffffffffffffffffffffffff1673ffffffffffffffffffffffffffffffffffffffff168152602001908152602001600020600082825401925050819055505b8173ffffffffffffffffffffffffffffffffffffffff168373ffffffffffffffffffffffffffffffffffffffff167fddf252ad1be2c89b69c2b068fc378daa952ba7f163c4a11628f55a4df523b3ef83604051620004c8919062000950565b60405180910390a3505050565b600081519050919050565b7f4e487b7100000000000000000000000000000000000000000000000000000000600052604160045260246000fd5b7f4e487b7100000000000000000000000000000000000000000000000000000000600052602260045260246000fd5b600060028204905060018216806200055757607f821691505b6020821081036200056d576200056c6200050f565b5b50919050565b60008190508160005260206000209050919050565b60006020601f8301049050919050565b600082821b905092915050565b600060088302620005d77fffffffffffffffffffffffffffffffffffffffffffffffffffffffffffffffff8262000598565b620005e3868362000598565b95508019841693508086168417925050509392505050565b6000819050919050565b6000819050919050565b6000620006306200062a6200062484620005fb565b62000605565b620005fb565b9050919050565b6000819050919050565b6200064c836200060f565b620006646200065b8262000637565b848454620005a5565b825550505050565b600090565b6200067b6200066c565b6200068881848462000641565b505050565b5b81811015620006b057620006a460008262000671565b6001810190506200068e565b5050565b601f821115620006ff57620006c98162000573565b620006d48462000588565b81016020851015620006e4578190505b620006fc620006f38562000588565b8301826200068d565b50505b505050565b600082821c905092915050565b6000620007246000198460080262000704565b1980831691505092915050565b60006200073f838362000711565b9150826002028217905092915050565b6200075a82620004d5565b67ffffffffffffffff811115620007765762000775620004e0565b5b6200078282546200053e565b6200078f828285620006b4565b600060209050601f831160018114620007c75760008415620007b2578287015190505b620007be858262000731565b8655506200082e565b601f198416620007d78662000573565b60005b828110156200080157848901518255600182019150602085019450602081019050620007da565b868310156200082157848901516200081d601f89168262000711565b8355505b6001600288020188555050505b505050505050565b600073ffffffffffffffffffffffffffffffffffffffff82169050919050565b6000620008638262000836565b9050919050565b620008758162000856565b82525050565b60006020820190506200089260008301846200086a565b92915050565b7f4e487b7100000000000000000000000000000000000000000000000000000000600052601160045260246000fd5b6000620008d482620005fb565b9150620008e183620005fb565b9250828201905080821115620008fc57620008fb62000898565b5b92915050565b6200090d81620005fb565b82525050565b60006060820190506200092a60008301866200086a565b62000939602083018562000902565b62000948604083018462000902565b949350505050565b600060208201905062000967600083018462000902565b92915050565b61316a806200097d6000396000f3fe608060405234801561001057600080fd5b50600436106101585760003560e01c806370a08231116100c3578063a9059cbb1161007c578063a9059cbb146103d9578063d25468b314610409578063dc74686214610439578063dd62ed3e14610455578063f2fde38b14610485578063f568c6c5146104a157610158565b806370a0823114610327578063715018a6146103575780638a04ddba146103615780638da5cb5b1461037f57806395649bc91461039d57806395d89b41146103bb57610158565b806323b872dd1161011557806323b872dd1461023357806324600fc314610263578063313ce5671461026d57806331fc042f1461028b57806352d3f849146102c05780636a030ca9146102f057610158565b806306fdde031461015d578063095ea7b31461017b5780630ba70d09146101ab57806312ee1c0e146101c957806318160ddd146101f95780631c788a9a14610217575b600080fd5b6101656104bf565b604051610172919061212d565b60405180910390f35b610195600480360381019061019091906121f7565b610551565b6040516101a29190612252565b60405180910390f35b6101b3610574565b6040516101c0919061227c565b60405180910390f35b6101e360048036038101906101de91906123cc565b610619565b6040516101f09190612466565b60405180910390f35b610201610850565b60405161020e9190612466565b60405180910390f35b610231600480360381019061022c91906124ba565b61085a565b005b61024d600480360381019061024891906124fa565b610b5b565b60405161025a9190612252565b60405180910390f35b61026b610b88565b005b610275610c8f565b604051610282919061255c565b60405180910390f35b6102a560048036038101906102a09190612577565b610c98565b6040516102b7969594939291906125a4565b60405180910390f35b6102da60048036038101906102d591906121f7565b610eab565b6040516102e79190612252565b60405180910390f35b61030a60048036038101906103059190612577565b610eda565b60405161031e989796959493929190612613565b60405180910390f35b610341600480360381019061033c919061269f565b61105f565b60405161034e9190612466565b60405180910390f35b61035f6110a7565b005b6103696110bb565b6040516103769190612466565b60405180910390f35b610387611140565b604051610394919061227c565b60405180910390f35b6103a561116a565b6040516103b2919061227c565b60405180910390f35b6103c361120f565b6040516103d0919061212d565b60405180910390f35b6103f360048036038101906103ee91906121f7565b6112a1565b6040516104009190612252565b60405180910390f35b610423600480360381019061041e91906121f7565b6112cc565b6040516104309190612252565b60405180910390f35b610453600480360381019061044e9190612577565b6112fb565b005b61046f600480360381019061046a91906126cc565b6115ae565b60405161047c9190612466565b60405180910390f35b61049f600480360381019061049a919061269f565b611635565b005b6104a96116bb565b6040516104b69190612466565b60405180910390f35b6060600380546104ce9061273b565b80601f01602080910402602001604051908101604052809291908181526020018280546104fa9061273b565b80156105475780601f1061051c57610100808354040283529160200191610547565b820191906000526020600020905b81548152906001019060200180831161052a57829003601f168201915b5050505050905090565b60008061055c6116c1565b90506105698185856116c9565b600191505092915050565b600080600680549050116105bd576040517f08c379a00000000000000000000000000000000000000000000000000000000081526004016105b4906127b8565b60405180910390fd5b600660016006805490506105d19190612807565b815481106105e2576105e161283b565b5b906000526020600020906004020160000160009054906101000a900473ffffffffffffffffffffffffffffffffffffffff16905090565b60008084511161065e576040517f08c379a0000000000000000000000000000000000000000000000000000000008152600401610655906128b6565b60405180910390fd5b600082116106a1576040517f08c379a000000000000000000000000000000000000000000000000000000000815260040161069890612922565b60405180910390fd5b6000600a60008154809291906106b690612942565b9190505590506040518061010001604052808681526020018581526020018481526020013373ffffffffffffffffffffffffffffffffffffffff1681526020016000815260200160008152602001600081526020016001151581525060076000838152602001908152602001600020600082015181600001908161073a9190612b36565b5060208201518160010190816107509190612b36565b506040820151816002015560608201518160030160006101000a81548173ffffffffffffffffffffffffffffffffffffffff021916908373ffffffffffffffffffffffffffffffffffffffff1602179055506080820151816004015560a0820151816005015560c0820151816006015560e08201518160070160006101000a81548160ff0219169083151502179055509050506107f633686c6b935b8bbd4000006116db565b3373ffffffffffffffffffffffffffffffffffffffff16817fc871238e094f30f9449f0d1948e935f470dcbf4dbc2b2aef67d45f45d4ea880b8760405161083d919061212d565b60405180910390a3809150509392505050565b6000600254905090565b6007600083815260200190815260200160002060070160009054906101000a900460ff166108bd576040517f08c379a00000000000000000000000000000000000000000000000000000000081526004016108b490612c54565b60405180910390fd5b600860003373ffffffffffffffffffffffffffffffffffffffff1673ffffffffffffffffffffffffffffffffffffffff168152602001908152602001600020600083815260200190815260200160002060009054906101000a900460ff1661095a576040517f08c379a000000000000000000000000000000000000000000000000000000000815260040161095190612cc0565b60405180910390fd5b600960003373ffffffffffffffffffffffffffffffffffffffff1673ffffffffffffffffffffffffffffffffffffffff168152602001908152602001600020600083815260200190815260200160002060009054906101000a900460ff16156109f8576040517f08c379a00000000000000000000000000000000000000000000000000000000081526004016109ef90612d2c565b60405180910390fd5b60018160ff1610158015610a10575060058160ff1611155b610a4f576040517f08c379a0000000000000000000000000000000000000000000000000000000008152600401610a4690612d98565b60405180910390fd5b60006007600084815260200190815260200160002090508160ff16816005016000828254610a7d9190612db8565b92505081905550806006016000815480929190610a9990612942565b91905055506001600960003373ffffffffffffffffffffffffffffffffffffffff1673ffffffffffffffffffffffffffffffffffffffff168152602001908152602001600020600085815260200190815260200160002060006101000a81548160ff0219169083151502179055503373ffffffffffffffffffffffffffffffffffffffff16837ffaf9f3e1fdcee02b60a86f88d3d00c69853925ce50a737a2f544c5d0cb132da584604051610b4e919061255c565b60405180910390a3505050565b600080610b6985858561175d565b90508015610b7d57610b7c85858561178c565b5b809150509392505050565b610b906119a8565b600047905060008111610bd8576040517f08c379a0000000000000000000000000000000000000000000000000000000008152600401610bcf90612e38565b60405180910390fd5b6000610be2611140565b73ffffffffffffffffffffffffffffffffffffffff1682604051610c0590612e89565b60006040518083038185875af1925050503d8060008114610c42576040519150601f19603f3d011682016040523d82523d6000602084013e610c47565b606091505b5050905080610c8b576040517f08c379a0000000000000000000000000000000000000000000000000000000008152600401610c8290612eea565b60405180910390fd5b5050565b60006012905090565b6060806000806000806007600088815260200190815260200160002060070160009054906101000a900460ff16610d04576040517f08c379a0000000000000000000000000000000000000000000000000000000008152600401610cfb90612c54565b60405180910390fd5b60006007600089815260200190815260200160002090506000816006015411610d2e576000610d43565b80600601548160050154610d429190612f39565b5b9250806000018160010182600201548360030160009054906101000a900473ffffffffffffffffffffffffffffffffffffffff16868560060154858054610d899061273b565b80601f0160208091040260200160405190810160405280929190818152602001828054610db59061273b565b8015610e025780601f10610dd757610100808354040283529160200191610e02565b820191906000526020600020905b815481529060010190602001808311610de557829003601f168201915b50505050509550848054610e159061273b565b80601f0160208091040260200160405190810160405280929190818152602001828054610e419061273b565b8015610e8e5780601f10610e6357610100808354040283529160200191610e8e565b820191906000526020600020905b815481529060010190602001808311610e7157829003601f168201915b505050505094509650965096509650965096505091939550919395565b60086020528160005260406000206020528060005260406000206000915091509054906101000a900460ff1681565b6007602052806000526040600020600091509050806000018054610efd9061273b565b80601f0160208091040260200160405190810160405280929190818152602001828054610f299061273b565b8015610f765780601f10610f4b57610100808354040283529160200191610f76565b820191906000526020600020905b815481529060010190602001808311610f5957829003601f168201915b505050505090806001018054610f8b9061273b565b80601f0160208091040260200160405190810160405280929190818152602001828054610fb79061273b565b80156110045780601f10610fd957610100808354040283529160200191611004565b820191906000526020600020905b815481529060010190602001808311610fe757829003601f168201915b5050505050908060020154908060030160009054906101000a900473ffffffffffffffffffffffffffffffffffffffff16908060040154908060050154908060060154908060070160009054906101000a900460ff16905088565b60008060008373ffffffffffffffffffffffffffffffffffffffff1673ffffffffffffffffffffffffffffffffffffffff168152602001908152602001600020549050919050565b6110af6119a8565b6110b96000611a2f565b565b60008060068054905011611104576040517f08c379a00000000000000000000000000000000000000000000000000000000081526004016110fb906127b8565b60405180910390fd5b600660016006805490506111189190612807565b815481106111295761112861283b565b5b906000526020600020906004020160030154905090565b6000600560009054906101000a900473ffffffffffffffffffffffffffffffffffffffff16905090565b600080600680549050116111b3576040517f08c379a00000000000000000000000000000000000000000000000000000000081526004016111aa906127b8565b60405180910390fd5b600660016006805490506111c79190612807565b815481106111d8576111d761283b565b5b906000526020600020906004020160010160009054906101000a900473ffffffffffffffffffffffffffffffffffffffff16905090565b60606004805461121e9061273b565b80601f016020809104026020016040519081016040528092919081815260200182805461124a9061273b565b80156112975780601f1061126c57610100808354040283529160200191611297565b820191906000526020600020905b81548152906001019060200180831161127a57829003601f168201915b5050505050905090565b6000806112ae8484611af5565b905080156112c2576112c133858561178c565b5b8091505092915050565b60096020528160005260406000206020528060005260406000206000915091509054906101000a900460ff1681565b6007600082815260200190815260200160002060070160009054906101000a900460ff1661135e576040517f08c379a000000000000000000000000000000000000000000000000000000000815260040161135590612c54565b60405180910390fd5b600860003373ffffffffffffffffffffffffffffffffffffffff1673ffffffffffffffffffffffffffffffffffffffff168152602001908152602001600020600082815260200190815260200160002060009054906101000a900460ff16156113fc576040517f08c379a00000000000000000000000000000000000000000000000000000000081526004016113f390612fb6565b60405180910390fd5b600760008281526020019081526020016000206002015461141c3361105f565b101561145d576040517f08c379a000000000000000000000000000000000000000000000000000000000815260040161145490613022565b60405180910390fd5b6000600760008381526020019081526020016000209050600061148033306115ae565b905081600201548110156114c9576040517f08c379a00000000000000000000000000000000000000000000000000000000081526004016114c0906130b4565b60405180910390fd5b6114fc338360030160009054906101000a900473ffffffffffffffffffffffffffffffffffffffff168460020154611b18565b6001600860003373ffffffffffffffffffffffffffffffffffffffff1673ffffffffffffffffffffffffffffffffffffffff168152602001908152602001600020600085815260200190815260200160002060006101000a81548160ff0219169083151502179055503373ffffffffffffffffffffffffffffffffffffffff16837fc8581808129c51c0416692a5ea1b58e080ae8f21e384eefe2f2dc85d231d12ba60405160405180910390a3505050565b6000600160008473ffffffffffffffffffffffffffffffffffffffff1673ffffffffffffffffffffffffffffffffffffffff16815260200190815260200160002060008373ffffffffffffffffffffffffffffffffffffffff1673ffffffffffffffffffffffffffffffffffffffff16815260200190815260200160002054905092915050565b61163d6119a8565b600073ffffffffffffffffffffffffffffffffffffffff168173ffffffffffffffffffffffffffffffffffffffff16036116af5760006040517f1e4fbdf70000000000000000000000000000000000000000000000000000000081526004016116a6919061227c565b60405180910390fd5b6116b881611a2f565b50565b6103e881565b600033905090565b6116d68383836001611c0c565b505050565b600073ffffffffffffffffffffffffffffffffffffffff168273ffffffffffffffffffffffffffffffffffffffff160361174d5760006040517fec442f05000000000000000000000000000000000000000000000000000000008152600401611744919061227c565b60405180910390fd5b61175960008383611de3565b5050565b6000806117686116c1565b9050611775858285612008565b611780858585611b18565b60019150509392505050565b600660405180608001604052808573ffffffffffffffffffffffffffffffffffffffff1681526020018473ffffffffffffffffffffffffffffffffffffffff16815260200183815260200142815250908060018154018082558091505060019003906000526020600020906004020160009091909190915060008201518160000160006101000a81548173ffffffffffffffffffffffffffffffffffffffff021916908373ffffffffffffffffffffffffffffffffffffffff16021790555060208201518160010160006101000a81548173ffffffffffffffffffffffffffffffffffffffff021916908373ffffffffffffffffffffffffffffffffffffffff160217905550604082015181600201556060820151816003015550508173ffffffffffffffffffffffffffffffffffffffff168373ffffffffffffffffffffffffffffffffffffffff167f389f30d4ee35537492e3c3d72708d1f4a5e2dce404421e0f653f1e9547b26c9083426040516119079291906130d4565b60405180910390a36103e860068054905011156119a35760066000815481106119335761193261283b565b5b9060005260206000209060040201600080820160006101000a81549073ffffffffffffffffffffffffffffffffffffffff02191690556001820160006101000a81549073ffffffffffffffffffffffffffffffffffffffff02191690556002820160009055600382016000905550505b505050565b6119b06116c1565b73ffffffffffffffffffffffffffffffffffffffff166119ce611140565b73ffffffffffffffffffffffffffffffffffffffff1614611a2d576119f16116c1565b6040517f118cdaa7000000000000000000000000000000000000000000000000000000008152600401611a24919061227c565b60405180910390fd5b565b6000600560009054906101000a900473ffffffffffffffffffffffffffffffffffffffff16905081600560006101000a81548173ffffffffffffffffffffffffffffffffffffffff021916908373ffffffffffffffffffffffffffffffffffffffff1602179055508173ffffffffffffffffffffffffffffffffffffffff168173ffffffffffffffffffffffffffffffffffffffff167f8be0079c531659141344cd1fd0a4f28419497f9722a3daafe3b4186f6b6457e060405160405180910390a35050565b600080611b006116c1565b9050611b0d818585611b18565b600191505092915050565b600073ffffffffffffffffffffffffffffffffffffffff168373ffffffffffffffffffffffffffffffffffffffff1603611b8a5760006040517f96c6fd1e000000000000000000000000000000000000000000000000000000008152600401611b81919061227c565b60405180910390fd5b600073ffffffffffffffffffffffffffffffffffffffff168273ffffffffffffffffffffffffffffffffffffffff1603611bfc5760006040517fec442f05000000000000000000000000000000000000000000000000000000008152600401611bf3919061227c565b60405180910390fd5b611c07838383611de3565b505050565b600073ffffffffffffffffffffffffffffffffffffffff168473ffffffffffffffffffffffffffffffffffffffff1603611c7e5760006040517fe602df05000000000000000000000000000000000000000000000000000000008152600401611c75919061227c565b60405180910390fd5b600073ffffffffffffffffffffffffffffffffffffffff168373ffffffffffffffffffffffffffffffffffffffff1603611cf05760006040517f94280d62000000000000000000000000000000000000000000000000000000008152600401611ce7919061227c565b60405180910390fd5b81600160008673ffffffffffffffffffffffffffffffffffffffff1673ffffffffffffffffffffffffffffffffffffffff16815260200190815260200160002060008573ffffffffffffffffffffffffffffffffffffffff1673ffffffffffffffffffffffffffffffffffffffff168152602001908152602001600020819055508015611ddd578273ffffffffffffffffffffffffffffffffffffffff168473ffffffffffffffffffffffffffffffffffffffff167f8c5be1e5ebec7d5bd14f71427d1e84f3dd0314c0f7b2291e5b200ac8c7c3b92584604051611dd49190612466565b60405180910390a35b50505050565b600073ffffffffffffffffffffffffffffffffffffffff168373ffffffffffffffffffffffffffffffffffffffff1603611e35578060026000828254611e299190612db8565b92505081905550611f08565b60008060008573ffffffffffffffffffffffffffffffffffffffff1673ffffffffffffffffffffffffffffffffffffffff16815260200190815260200160002054905081811015611ec1578381836040517fe450d38c000000000000000000000000000000000000000000000000000000008152600401611eb8939291906130fd565b60405180910390fd5b8181036000808673ffffffffffffffffffffffffffffffffffffffff1673ffffffffffffffffffffffffffffffffffffffff16815260200190815260200160002081905550505b600073ffffffffffffffffffffffffffffffffffffffff168273ffffffffffffffffffffffffffffffffffffffff1603611f515780600260008282540392505081905550611f9e565b806000808473ffffffffffffffffffffffffffffffffffffffff1673ffffffffffffffffffffffffffffffffffffffff168152602001908152602001600020600082825401925050819055505b8173ffffffffffffffffffffffffffffffffffffffff168373ffffffffffffffffffffffffffffffffffffffff167fddf252ad1be2c89b69c2b068fc378daa952ba7f163c4a11628f55a4df523b3ef83604051611ffb9190612466565b60405180910390a3505050565b600061201484846115ae565b90507fffffffffffffffffffffffffffffffffffffffffffffffffffffffffffffffff8110156120975781811015612087578281836040517ffb8f41b200000000000000000000000000000000000000000000000000000000815260040161207e939291906130fd565b60405180910390fd5b61209684848484036000611c0c565b5b50505050565b600081519050919050565b600082825260208201905092915050565b60005b838110156120d75780820151818401526020810190506120bc565b60008484015250505050565b6000601f19601f8301169050919050565b60006120ff8261209d565b61210981856120a8565b93506121198185602086016120b9565b612122816120e3565b840191505092915050565b6000602082019050818103600083015261214781846120f4565b905092915050565b6000604051905090565b600080fd5b600080fd5b600073ffffffffffffffffffffffffffffffffffffffff82169050919050565b600061218e82612163565b9050919050565b61219e81612183565b81146121a957600080fd5b50565b6000813590506121bb81612195565b92915050565b6000819050919050565b6121d4816121c1565b81146121df57600080fd5b50565b6000813590506121f1816121cb565b92915050565b6000806040838503121561220e5761220d612159565b5b600061221c858286016121ac565b925050602061222d858286016121e2565b9150509250929050565b60008115159050919050565b61224c81612237565b82525050565b60006020820190506122676000830184612243565b92915050565b61227681612183565b82525050565b6000602082019050612291600083018461226d565b92915050565b600080fd5b600080fd5b7f4e487b7100000000000000000000000000000000000000000000000000000000600052604160045260246000fd5b6122d9826120e3565b810181811067ffffffffffffffff821117156122f8576122f76122a1565b5b80604052505050565b600061230b61214f565b905061231782826122d0565b919050565b600067ffffffffffffffff821115612337576123366122a1565b5b612340826120e3565b9050602081019050919050565b82818337600083830152505050565b600061236f61236a8461231c565b612301565b90508281526020810184848401111561238b5761238a61229c565b5b61239684828561234d565b509392505050565b600082601f8301126123b3576123b2612297565b5b81356123c384826020860161235c565b91505092915050565b6000806000606084860312156123e5576123e4612159565b5b600084013567ffffffffffffffff8111156124035761240261215e565b5b61240f8682870161239e565b935050602084013567ffffffffffffffff8111156124305761242f61215e565b5b61243c8682870161239e565b925050604061244d868287016121e2565b9150509250925092565b612460816121c1565b82525050565b600060208201905061247b6000830184612457565b92915050565b600060ff82169050919050565b61249781612481565b81146124a257600080fd5b50565b6000813590506124b48161248e565b92915050565b600080604083850312156124d1576124d0612159565b5b60006124df858286016121e2565b92505060206124f0858286016124a5565b9150509250929050565b60008060006060848603121561251357612512612159565b5b6000612521868287016121ac565b9350506020612532868287016121ac565b9250506040612543868287016121e2565b9150509250925092565b61255681612481565b82525050565b6000602082019050612571600083018461254d565b92915050565b60006020828403121561258d5761258c612159565b5b600061259b848285016121e2565b91505092915050565b600060c08201905081810360008301526125be81896120f4565b905081810360208301526125d281886120f4565b90506125e16040830187612457565b6125ee606083018661226d565b6125fb6080830185612457565b61260860a0830184612457565b979650505050505050565b600061010082019050818103600083015261262e818b6120f4565b90508181036020830152612642818a6120f4565b90506126516040830189612457565b61265e606083018861226d565b61266b6080830187612457565b61267860a0830186612457565b61268560c0830185612457565b61269260e0830184612243565b9998505050505050505050565b6000602082840312156126b5576126b4612159565b5b60006126c3848285016121ac565b91505092915050565b600080604083850312156126e3576126e2612159565b5b60006126f1858286016121ac565b9250506020612702858286016121ac565b9150509250929050565b7f4e487b7100000000000000000000000000000000000000000000000000000000600052602260045260246000fd5b6000600282049050600182168061275357607f821691505b6020821081036127665761276561270c565b5b50919050565b7f4e6f207472616e73616374696f6e732079657400000000000000000000000000600082015250565b60006127a26013836120a8565b91506127ad8261276c565b602082019050919050565b600060208201905081810360008301526127d181612795565b9050919050565b7f4e487b7100000000000000000000000000000000000000000000000000000000600052601160045260246000fd5b6000612812826121c1565b915061281d836121c1565b9250828203905081811115612835576128346127d8565b5b92915050565b7f4e487b7100000000000000000000000000000000000000000000000000000000600052603260045260246000fd5b7f4e616d652063616e6e6f7420626520656d707479000000000000000000000000600082015250565b60006128a06014836120a8565b91506128ab8261286a565b602082019050919050565b600060208201905081810360008301526128cf81612893565b9050919050565b7f5072696365206d7573742062652067726561746572207468616e203000000000600082015250565b600061290c601c836120a8565b9150612917826128d6565b602082019050919050565b6000602082019050818103600083015261293b816128ff565b9050919050565b600061294d826121c1565b91507fffffffffffffffffffffffffffffffffffffffffffffffffffffffffffffffff820361297f5761297e6127d8565b5b600182019050919050565b60008190508160005260206000209050919050565b60006020601f8301049050919050565b600082821b905092915050565b6000600883026129ec7fffffffffffffffffffffffffffffffffffffffffffffffffffffffffffffffff826129af565b6129f686836129af565b95508019841693508086168417925050509392505050565b6000819050919050565b6000612a33612a2e612a29846121c1565b612a0e565b6121c1565b9050919050565b6000819050919050565b612a4d83612a18565b612a61612a5982612a3a565b8484546129bc565b825550505050565b600090565b612a76612a69565b612a81818484612a44565b505050565b5b81811015612aa557612a9a600082612a6e565b600181019050612a87565b5050565b601f821115612aea57612abb8161298a565b612ac48461299f565b81016020851015612ad3578190505b612ae7612adf8561299f565b830182612a86565b50505b505050565b600082821c905092915050565b6000612b0d60001984600802612aef565b1980831691505092915050565b6000612b268383612afc565b9150826002028217905092915050565b612b3f8261209d565b67ffffffffffffffff811115612b5857612b576122a1565b5b612b62825461273b565b612b6d828285612aa9565b600060209050601f831160018114612ba05760008415612b8e578287015190505b612b988582612b1a565b865550612c00565b601f198416612bae8661298a565b60005b82811015612bd657848901518255600182019150602085019450602081019050612bb1565b86831015612bf35784890151612bef601f891682612afc565b8355505b6001600288020188555050505b505050505050565b7f4d6f64656c20646f6573206e6f74206578697374000000000000000000000000600082015250565b6000612c3e6014836120a8565b9150612c4982612c08565b602082019050919050565b60006020820190508181036000830152612c6d81612c31565b9050919050565b7f4d757374207075726368617365206265666f726520726174696e670000000000600082015250565b6000612caa601b836120a8565b9150612cb582612c74565b602082019050919050565b60006020820190508181036000830152612cd981612c9d565b9050919050565b7f416c72656164792072617465642074686973206d6f64656c0000000000000000600082015250565b6000612d166018836120a8565b9150612d2182612ce0565b602082019050919050565b60006020820190508181036000830152612d4581612d09565b9050919050565b7f526174696e67206d757374206265206265747765656e203120616e6420350000600082015250565b6000612d82601e836120a8565b9150612d8d82612d4c565b602082019050919050565b60006020820190508181036000830152612db181612d75565b9050919050565b6000612dc3826121c1565b9150612dce836121c1565b9250828201905080821115612de657612de56127d8565b5b92915050565b7f4e6f2066756e647320746f207769746864726177000000000000000000000000600082015250565b6000612e226014836120a8565b9150612e2d82612dec565b602082019050919050565b60006020820190508181036000830152612e5181612e15565b9050919050565b600081905092915050565b50565b6000612e73600083612e58565b9150612e7e82612e63565b600082019050919050565b6000612e9482612e66565b9150819050919050565b7f5769746864726177616c206661696c6564000000000000000000000000000000600082015250565b6000612ed46011836120a8565b9150612edf82612e9e565b602082019050919050565b60006020820190508181036000830152612f0381612ec7565b9050919050565b7f4e487b7100000000000000000000000000000000000000000000000000000000600052601260045260246000fd5b6000612f44826121c1565b9150612f4f836121c1565b925082612f5f57612f5e612f0a565b5b828204905092915050565b7f416c7265616479207075726368617365642074686973206d6f64656c00000000600082015250565b6000612fa0601c836120a8565b9150612fab82612f6a565b602082019050919050565b60006020820190508181036000830152612fcf81612f93565b9050919050565b7f496e73756666696369656e742062616c616e6365000000000000000000000000600082015250565b600061300c6014836120a8565b915061301782612fd6565b602082019050919050565b6000602082019050818103600083015261303b81612fff565b9050919050565b7f417070726f766520746865206d61726b6574706c61636520746f207370656e6460008201527f20746f6b656e7300000000000000000000000000000000000000000000000000602082015250565b600061309e6027836120a8565b91506130a982613042565b604082019050919050565b600060208201905081810360008301526130cd81613091565b9050919050565b60006040820190506130e96000830185612457565b6130f66020830184612457565b9392505050565b6000606082019050613112600083018661226d565b61311f6020830185612457565b61312c6040830184612457565b94935050505056fea2646970667358221220405209f9d37919ada2b2b65b639cc6f2d11267001a2ea70d21e4f6892eb85f6d64736f6c63430008140033",
  "linkReferences": {},
  "deployedLinkReferences": {}
}