{
  "_format": "hh-sol-artifact-1",
  "contractName": "Marketplace",
  "sourceName": "contracts/Marketplace.sol",
  "abi": [
    {
      "inputs": [
        {
          "internalType": "address",
          "name": "tokenAddress",
          "type": "address"
        }
      ],
      "stateMutability": "nonpayable",
      "type": "constructor"
    },
    {
      "anonymous": false,
      "inputs": [
        {
          "indexed": false,
          "internalType": "uint256",
          "name": "id",
          "type": "uint256"
        },
        {
          "indexed": false,
          "internalType": "string",
          "name": "name",
          "type": "string"
        },
        {
          "indexed": false,
          "internalType": "uint256",
          "name": "price",
          "type": "uint256"
        },
        {
          "indexed": false,
          "internalType": "address",
          "name": "seller",
          "type": "address"
        }
      ],
      "name": "ModelListed",
      "type": "event"
    },
    {
      "anonymous": false,
      "inputs": [
        {
          "indexed": false,
          "internalType": "uint256",
          "name": "id",
          "type": "uint256"
        },
        {
          "indexed": false,
          "internalType": "address",
          "name": "buyer",
          "type": "address"
        }
      ],
      "name": "ModelSold",
      "type": "event"
    },
    {
      "inputs": [
        {
          "internalType": "string",
          "name": "name",
          "type": "string"
        },
        {
          "internalType": "string",
          "name": "description",
          "type": "string"
        },
        {
          "internalType": "uint256",
          "name": "price",
          "type": "uint256"
        },
        {
          "internalType": "string",
          "name": "fileUrl",
          "type": "string"
        }
      ],
      "name": "listModel",
      "outputs": [],
      "stateMutability": "nonpayable",
      "type": "function"
    },
    {
      "inputs": [
        {
          "internalType": "uint256",
          "name": "",
          "type": "uint256"
        }
      ],
      "name": "models",
      "outputs": [
        {
          "internalType": "uint256",
          "name": "id",
          "type": "uint256"
        },
        {
          "internalType": "string",
          "name": "name",
          "type": "string"
        },
        {
          "internalType": "string",
          "name": "description",
          "type": "string"
        },
        {
          "internalType": "uint256",
          "name": "price",
          "type": "uint256"
        },
        {
          "internalType": "address",
          "name": "seller",
          "type": "address"
        },
        {
          "internalType": "string",
          "name": "fileUrl",
          "type": "string"
        },
        {
          "internalType": "bool",
          "name": "sold",
          "type": "bool"
        }
      ],
      "stateMutability": "view",
      "type": "function"
    },
    {
      "inputs": [],
      "name": "nextModelId",
      "outputs": [
        {
          "internalType": "uint256",
          "name": "",
          "type": "uint256"
        }
      ],
      "stateMutability": "view",
      "type": "function"
    },
    {
      "inputs": [
        {
          "internalType": "uint256",
          "name": "modelId",
          "type": "uint256"
        }
      ],
      "name": "purchaseModel",
      "outputs": [],
      "stateMutability": "nonpayable",
      "type": "function"
    },
    {
      "inputs": [],
      "name": "token",
      "outputs": [
        {
          "internalType": "contract IERC20",
          "name": "",
          "type": "address"
        }
      ],
      "stateMutability": "view",
      "type": "function"
    }
  ],
  "bytecode": "0x60806040523480156200001157600080fd5b5060405162001184380380620011848339818101604052810190620000379190620000e8565b806000806101000a81548173ffffffffffffffffffffffffffffffffffffffff021916908373ffffffffffffffffffffffffffffffffffffffff160217905550506200011a565b600080fd5b600073ffffffffffffffffffffffffffffffffffffffff82169050919050565b6000620000b08262000083565b9050919050565b620000c281620000a3565b8114620000ce57600080fd5b50565b600081519050620000e281620000b7565b92915050565b6000602082840312156200010157620001006200007e565b5b60006200011184828501620000d1565b91505092915050565b61105a806200012a6000396000f3fe608060405234801561001057600080fd5b50600436106100575760003560e01c80636a030ca91461005c578063dc74686214610092578063e2d2c9ae146100ae578063e472ae8b146100ca578063fc0c546a146100e8575b600080fd5b610076600480360381019061007191906106cb565b610106565b60405161008997969594939291906107f3565b60405180910390f35b6100ac60048036038101906100a791906106cb565b61030d565b005b6100c860048036038101906100c391906109ac565b6104d7565b005b6100d2610657565b6040516100df9190610a67565b60405180910390f35b6100f061065d565b6040516100fd9190610ae1565b60405180910390f35b600260205280600052604060002060009150905080600001549080600101805461012f90610b2b565b80601f016020809104026020016040519081016040528092919081815260200182805461015b90610b2b565b80156101a85780601f1061017d576101008083540402835291602001916101a8565b820191906000526020600020905b81548152906001019060200180831161018b57829003601f168201915b5050505050908060020180546101bd90610b2b565b80601f01602080910402602001604051908101604052809291908181526020018280546101e990610b2b565b80156102365780601f1061020b57610100808354040283529160200191610236565b820191906000526020600020905b81548152906001019060200180831161021957829003601f168201915b5050505050908060030154908060040160009054906101000a900473ffffffffffffffffffffffffffffffffffffffff169080600501805461027790610b2b565b80601f01602080910402602001604051908101604052809291908181526020018280546102a390610b2b565b80156102f05780601f106102c5576101008083540402835291602001916102f0565b820191906000526020600020905b8154815290600101906020018083116102d357829003601f168201915b5050505050908060060160009054906101000a900460ff16905087565b60006002600083815260200190815260200160002090508060060160009054906101000a900460ff1615610376576040517f08c379a000000000000000000000000000000000000000000000000000000000815260040161036d90610ba8565b60405180910390fd5b60008054906101000a900473ffffffffffffffffffffffffffffffffffffffff1673ffffffffffffffffffffffffffffffffffffffff166323b872dd338360040160009054906101000a900473ffffffffffffffffffffffffffffffffffffffff1684600301546040518463ffffffff1660e01b81526004016103fb93929190610bc8565b6020604051808303816000875af115801561041a573d6000803e3d6000fd5b505050506040513d601f19601f8201168201806040525081019061043e9190610c2b565b61047d576040517f08c379a000000000000000000000000000000000000000000000000000000000815260040161047490610ca4565b60405180910390fd5b60018160060160006101000a81548160ff0219169083151502179055507f1890963e72f8f0ee471c25f4557b034ba23bed6345fa1647ffee56ed17312cc282336040516104cb929190610cc4565b60405180910390a15050565b6040518060e0016040528060015481526020018581526020018481526020018381526020013373ffffffffffffffffffffffffffffffffffffffff168152602001828152602001600015158152506002600060015481526020019081526020016000206000820151816000015560208201518160010190816105599190610e8f565b50604082015181600201908161056f9190610e8f565b506060820151816003015560808201518160040160006101000a81548173ffffffffffffffffffffffffffffffffffffffff021916908373ffffffffffffffffffffffffffffffffffffffff16021790555060a08201518160050190816105d69190610e8f565b5060c08201518160060160006101000a81548160ff0219169083151502179055509050507f4eed6af0d402cb471979373747ee3f09e77a623bff41d503ce96edacb72d858f6001548584336040516106319493929190610f61565b60405180910390a16001600081548092919061064c90610fdc565b919050555050505050565b60015481565b60008054906101000a900473ffffffffffffffffffffffffffffffffffffffff1681565b6000604051905090565b600080fd5b600080fd5b6000819050919050565b6106a881610695565b81146106b357600080fd5b50565b6000813590506106c58161069f565b92915050565b6000602082840312156106e1576106e061068b565b5b60006106ef848285016106b6565b91505092915050565b61070181610695565b82525050565b600081519050919050565b600082825260208201905092915050565b60005b83811015610741578082015181840152602081019050610726565b60008484015250505050565b6000601f19601f8301169050919050565b600061076982610707565b6107738185610712565b9350610783818560208601610723565b61078c8161074d565b840191505092915050565b600073ffffffffffffffffffffffffffffffffffffffff82169050919050565b60006107c282610797565b9050919050565b6107d2816107b7565b82525050565b60008115159050919050565b6107ed816107d8565b82525050565b600060e082019050610808600083018a6106f8565b818103602083015261081a818961075e565b9050818103604083015261082e818861075e565b905061083d60608301876106f8565b61084a60808301866107c9565b81810360a083015261085c818561075e565b905061086b60c08301846107e4565b98975050505050505050565b600080fd5b600080fd5b7f4e487b7100000000000000000000000000000000000000000000000000000000600052604160045260246000fd5b6108b98261074d565b810181811067ffffffffffffffff821117156108d8576108d7610881565b5b80604052505050565b60006108eb610681565b90506108f782826108b0565b919050565b600067ffffffffffffffff82111561091757610916610881565b5b6109208261074d565b9050602081019050919050565b82818337600083830152505050565b600061094f61094a846108fc565b6108e1565b90508281526020810184848401111561096b5761096a61087c565b5b61097684828561092d565b509392505050565b600082601f83011261099357610992610877565b5b81356109a384826020860161093c565b91505092915050565b600080600080608085870312156109c6576109c561068b565b5b600085013567ffffffffffffffff8111156109e4576109e3610690565b5b6109f08782880161097e565b945050602085013567ffffffffffffffff811115610a1157610a10610690565b5b610a1d8782880161097e565b9350506040610a2e878288016106b6565b925050606085013567ffffffffffffffff811115610a4f57610a4e610690565b5b610a5b8782880161097e565b91505092959194509250565b6000602082019050610a7c60008301846106f8565b92915050565b6000819050919050565b6000610aa7610aa2610a9d84610797565b610a82565b610797565b9050919050565b6000610ab982610a8c565b9050919050565b6000610acb82610aae565b9050919050565b610adb81610ac0565b82525050565b6000602082019050610af66000830184610ad2565b92915050565b7f4e487b7100000000000000000000000000000000000000000000000000000000600052602260045260246000fd5b60006002820490506001821680610b4357607f821691505b602082108103610b5657610b55610afc565b5b50919050565b7f4d6f64656c20616c726561647920736f6c640000000000000000000000000000600082015250565b6000610b92601283610712565b9150610b9d82610b5c565b602082019050919050565b60006020820190508181036000830152610bc181610b85565b9050919050565b6000606082019050610bdd60008301866107c9565b610bea60208301856107c9565b610bf760408301846106f8565b949350505050565b610c08816107d8565b8114610c1357600080fd5b50565b600081519050610c2581610bff565b92915050565b600060208284031215610c4157610c4061068b565b5b6000610c4f84828501610c16565b91505092915050565b7f546f6b656e207472616e73666572206661696c65640000000000000000000000600082015250565b6000610c8e601583610712565b9150610c9982610c58565b602082019050919050565b60006020820190508181036000830152610cbd81610c81565b9050919050565b6000604082019050610cd960008301856106f8565b610ce660208301846107c9565b9392505050565b60008190508160005260206000209050919050565b60006020601f8301049050919050565b600082821b905092915050565b600060088302610d4f7fffffffffffffffffffffffffffffffffffffffffffffffffffffffffffffffff82610d12565b610d598683610d12565b95508019841693508086168417925050509392505050565b6000610d8c610d87610d8284610695565b610a82565b610695565b9050919050565b6000819050919050565b610da683610d71565b610dba610db282610d93565b848454610d1f565b825550505050565b600090565b610dcf610dc2565b610dda818484610d9d565b505050565b5b81811015610dfe57610df3600082610dc7565b600181019050610de0565b5050565b601f821115610e4357610e1481610ced565b610e1d84610d02565b81016020851015610e2c578190505b610e40610e3885610d02565b830182610ddf565b50505b505050565b600082821c905092915050565b6000610e6660001984600802610e48565b1980831691505092915050565b6000610e7f8383610e55565b9150826002028217905092915050565b610e9882610707565b67ffffffffffffffff811115610eb157610eb0610881565b5b610ebb8254610b2b565b610ec6828285610e02565b600060209050601f831160018114610ef95760008415610ee7578287015190505b610ef18582610e73565b865550610f59565b601f198416610f0786610ced565b60005b82811015610f2f57848901518255600182019150602085019450602081019050610f0a565b86831015610f4c5784890151610f48601f891682610e55565b8355505b6001600288020188555050505b505050505050565b6000608082019050610f7660008301876106f8565b8181036020830152610f88818661075e565b9050610f9760408301856106f8565b610fa460608301846107c9565b95945050505050565b7f4e487b7100000000000000000000000000000000000000000000000000000000600052601160045260246000fd5b6000610fe782610695565b91507fffffffffffffffffffffffffffffffffffffffffffffffffffffffffffffffff820361101957611018610fad565b5b60018201905091905056fea26469706673582212206f5ba834938968dbb80b5db6175092e6f21385510b4fde2538e874afc1e8223564736f6c63430008140033",
  "linkReferences": {},
  "deployedLinkReferences": {}
}